S01A0000496E7465677261746F725F50726F6A6563742E73726563B5
S315000000003822FE1F014D0000D1470000FD4C0000C4
S31500000010FD4C0000FD4C0000FD4C000000000000FF
S31500000020000000000000000000000000FD4C000081
S31500000030FD4C000000000000FD4C0000FD4C0000DF
S31500000040CD12000065130000FFFFFFFFFFFFFFFF5B
S31500000050FFFFFFFFFFFFFFFFFFFFFFFFFFFFFFFFAA
S31500000060FFFFFFFFFFFFFFFFFFFFFFFFFFFFFFFF9A
S31500000070FFFFFFFFFFFFFFFFFFFFFFFFFFFFFFFF8A
S31500000080FFFFFFFFFFFFFFFFFFFFFFFFFFFFFFFF7A
S31500000400FFFFFFFFFFFDFFFFFFFFFFFFFFFFFFFFF8
S31500000410FFFFFFFFFFFFFFFFFFFFFFFFFFFFFFFFE6
S31500000420FFFFFFFFFFFFFFFFFFFFFFFFFFFFFFFFD6
S31500000430FFFFFFFFFFFFFFFFFFFFFFFFFFFFFFFFC6
S31500000440FFFFFFFFFFFFFFFFFFFFFFFFFFFFFFFFB6
S31500000450FFFFFFFFFFFFFFFFFFFFFFFFFFFFFFFFA6
S31500000460FFFFFFFFFFFFFFFFFFFFFFFFFFFFFFFF96
S31500000470FFFFFFFFFFFFFFFFFFFFFFFFFFFFFFFF86
S31500000480FFFFFFFFFFFFFFFFFFFFFFFFFFFFFFFF76
S31500000490FFFFFFFFFFFFFFFFFFFFFFFFFFFFFFFF66
S315000004A0FFFFFFFFFFFFFFFFFFFFFFFFFFFFFFFF56
S315000004B0FFFFFFFFFFFFFFFFFFFFFFFFFFFFFFFF46
S315000004C0FFFFFFFFFFFFFFFFFFFFFFFFFFFFFFFF36
S315000004D0FFFFFFFFFFFFFFFFFFFFFFFFFFFFFFFF26
S315000004E0FFFFFFFFFFFFFFFFFFFFFFFFFFFFFFFF16
S315000004F0FFFFFFFFFFFFFFFFFFFFFFFFFFFFFFFF06
S315000005006001FE1FC4082B007801FE1FCA082B30AD
S3150000051020000000200001002F0000002F00010035
S315000005200C00010011000000300000003000010046
S31500000530240000002400010024000200240003001F
S31500000540240004002400050013000000170000002A
S315000005502300000021000000210001000700000028
S31500000560070001000700020007000300070004005F
S31500000570070005000700060007000700120000003C
S3150000058044000000080000000B00000041000000CD
S31500000590400000004000010004000000430000008D
S315000005A02B0000002B000A002B000B002B000C0078
S315000005B02B000D002B0001002B0002002B00030076
S315000005C02B0004002B0005002B0006002B00070063
S315000005D02B0008002B0009000600000006000A0098
S315000005E006000B0006000C0006000D0006000E00BB
S315000005F006000F00060001000600020006000300C8
S3150000060006000400060005000600060006000700B6
S31500000610060008000600090015000000150001008C
S3150000062015000200310000002A000000450000000D
S315000006301000000003010000030000000300010099
S315000006400F0000000D0000002D0000004200000019
S315000006502C0000002C0001002C0002002C000300DE
S3150000066032000000280000001800000014000000FE
S31500000670140001001400020014000300140004001A
S3150000068014000500140006001400070014000800FA
S3150000069014000900340000003400010016000000B8
S315000006A0160001003500000036000000360001008B
S315000006B02200000033000000330100002900000082
S315000006C010B5054C237833B9044B13B10448AFF386
S315000006D000800123237010BDB000FE1F0000000043
S315000006E0606F0000084B10B51BB108480849AFF30E
S315000006F000800848036803B910BD074B002BFBD0E8
S31500000700BDE81040184700BF00000000606F000001
S31500000710B400FE1F0800FE1F0000000070B4104C5D
S315000007202368020A9A4216D26568C0B200F1100622
S31500000730012355F8225003FA06F62E420BD069B172
S3150000074000EB0210A36853F82030C3F340030020E7
S315000007500B7070BC7047032070BC70471846FBE7EF
S315000007607800FE1F084B1A68000A904201D3032046
S31500000770704731B1DA684301043200209B580B8080
S3150000078070470120704700BF7800FE1F084B1A68AB
S31500000790000A904201D30320704739B1DA68430159
S315000007A0043200209B581B0C0B80704701207047B9
S315000007B07800FE1F144A1368F0B4040A9C421DD246
S315000007C05768C5B205F11006012357F8244003FA0D
S315000007D006F6264212D0A1B1D468000A04344001BC
S315000007E003FA05F2005992B202EA1040904213BF92
S315000007F0002000200B700870F0BC70470320F0BC8E
S3150000080070471846FBE700BF7800FE1F0C4B10B47C
S315000008101C68000AA04200D21AB903205DF8044BF6
S315000008207047DB685DF8044B083303EB401022EA9F
S315000008300103114041EA034141600020704700BFB7
S315000008407800FE1F134BF0B41C68020AA2420AD2BB
S315000008505F68C5B205F11006012457F8222004FA94
S3150000086006F6164202D10320F0BC70470129FAD8D9
S3150000087000F47F400AD0AC4024040021DB68083332
S3150000088003EBD0000C4344600020EDE7A94089B299
S315000008900024F3E77800FE1F40B101230421022261
S315000008A001704370C370827000207047012070474A
S315000008B0012901D9032070472C4BF0B51C68020AA8
S315000008C0A2424ED25D68C0B200F11006012455F86E
S315000008D02250B4402C4244D000EB02109C681D69A3
S315000008E054F8203000293ED043F00401204E0E403B
S315000008F0EFF31087012383F310881E4B1A8892B2F8
S3150000090022B94FF0400EEA7085F803E01A880132EA
S3150000091092B21A8087F31088CF0354F8202007D5A7
S31500000920154F22F480320F4044F8202044F82070FE
S3150000093044F82060EFF31081012282F310881A88B0
S315000009400C4892B21AB10288013A92B202801B8810
S315000009509BB213B98022EB70EA7081F310880020F5
S31500000960F0BD0320F0BD23F00401BFE77800FE1FB1
S31500000970D5FC011FCC00FE1FD5FC001F0AB90320C1
S3150000098070470B4B10B41C68000AA04203D3032027
S315000009905DF8044B7047DB6822EA01044001083326
S315000009A00A4042EA0442C2505DF8044B00207047F8
S315000009B07800FE1F0AB9032070470D4B70B41C68FF
S315000009C0000AA04202D3032070BC70474001DD68D4
S315000009D02E582B5802EA01043443A4B261EA0202FB
S315000009E01B0C22401B041A432A50002070BC70477F
S315000009F07800FE1F2DE9F041002839D009681E4D08
S31500000A00002701EBC000B8464FF0010E8C8800238A
S31500000A1035F81320A24218D00133032BF8D1083140
S31500000A208142F3D1FF43FFB2012004F037F9134AA4
S31500000A3092F8BB3448EA030808EA070782F8BB7451
S31500000A400120BDE8F04104F0F9B80A6802F0B85296
S31500000A50B2F1807F05D00EFA03F647EA0602D7B256
S31500000A60DAE70EFA03F248EA02085FFA88F8D3E7F3
S31500000A708046FF27D8E700BFBC64000000E00140C5
S31500000A8070B582B002AB002403F8044D0546184643
S31500000A900E4603F07DFE9DF80430DB0702D40620E7
S31500000AA002B070BD202D02D9032002B070BD012E08
S31500000AB0FAD8084B1A69137805D02B4303F0300394
S31500000AC020461370ECE703F0300323EA05052046C1
S31500000AD01570E5E77800FE1F002867D02DE9F84F6E
S31500000AE04368002B5FD00146804631F8040BFFF7C0
S31500000AF081FFB8F80030002B52D02D4CDFF8B4E05F
S31500000B00A146002201204FF0400B4FF0800AD8F892
S31500000B100430DEF8107053F83260DEF8085003EB4C
S31500000B20C20399880B0AC9B201EB0313EFF3108CC9
S31500000B3080F31088218889B211B9F97087F803B05B
S31500000B402188013189B221808CF3108816F4803F08
S31500000B5055F8231007D021F4803126F4803C45F85F
S31500000B60231045F823C045F82360EFF3108180F386
S31500000B70108823889BB22BB1B9F80030013B9BB299
S31500000B80A9F8003023889BB213B9FB7087F803A03D
S31500000B9081F310880132B8F8003092B29342B6D889
S31500000BA00020BDE8F88F0120BDE8F88F01207047CE
S31500000BB0CC00FE1F7800FE1F002832D04368002BB1
S31500000BC02FD0F0B587B006AC002309210193164A51
S31500000BD004F8141D154ED768029305460393049333
S31500000BE0059302A92046B8474FF00A0C029ABDF8B1
S31500000BF00C308DF804C002A9F2602046059A726096
S31500000C003360B8470122029B8DF8052002A92046D1
S31500000C10B360B847029B33612846FFF75DFF07B014
S31500000C20F0BD0120704700BF986500007800FE1FE8
S31500000C302DE9F041304C2268050A954284B00346FE
S31500000C400CD26268C6B20F464FF0010806F11001D9
S31500000C5052F8252008FA01F1114203D1032004B00D
S31500000C60BDE8F08104A902AA41F80C2D4046ADF872
S31500000C700C300297ADF8008006EB0515FFF7BAFEBB
S31500000C802069A268EFF3108488F310881B490B884B
S31500000C909BB213B94026C370C6700B8801339BB252
S31500000CA00B8084F31088FC0352F8253007D523F413
S31500000CB0803327F4803442F8253042F8254042F844
S31500000CC02570EFF31082012383F310880B880B4CF9
S31500000CD09BB25BB90B889BB213B98021C370C170FC
S31500000CE082F31088002004B0BDE8F0812388013B20
S31500000CF09BB22380EEE700BF7800FE1FCC00FE1FEC
S31500000D00012901D9032070472C4BF0B51C68020A53
S31500000D10A2424ED25D68C0B200F11006012455F819
S31500000D202250B4402C4244D000EB02109C681D694E
S31500000D3054F8203001293ED023F00101204E0E4008
S31500000D40EFF31087012383F310881E4B1A8892B2A3
S31500000D5022B94FF0400EEA7085F803E01A88013296
S31500000D6092B21A8087F31088CF0354F8202007D553
S31500000D70154F22F480320F4044F8202044F82070AA
S31500000D8044F82060EFF31081012282F310881A885C
S31500000D900C4892B21AB10288013A92B202801B88BC
S31500000DA09BB213B98022EB70EA7081F310880020A1
S31500000DB0F0BD0320F0BD43F00101BFE77800FE1F40
S31500000DC0D5FC011FCC00FE1FD5FC001F20B1034B34
S31500000DD01B6803600020704701207047C464000050
S31500000DE030B129B1064B02689A4203D007207047FA
S31500000DF0012070478268C368002081E80C007047B4
S31500000E0043494752002839D01D4B02689A4201D007
S31500000E100720704790F82010C3694AB2002A30B400
S31500000E200DDB520920320124164D01F01F0104FA90
S31500000E3001F145F82210BFF34F8FBFF36F8F90F883
S31500000E4021104AB2002A0DDB5209203201200D4C36
S31500000E5001F01F0100FA01F144F82210BFF34F8F91
S31500000E60BFF36F8FD96A002221F00101D9629A611E
S31500000E705A615A621A61104630BC704701207047A9
S31500000E804349475200E100E030B129B1094B0268FD
S31500000E909A4203D00720704701207047C369DB6A76
S31500000EA013F0010318BF01230B7090F822304B702A
S31500000EB0002070474349475220B319B38B680BB3E0
S31500000EC02DE9F047904E86B0002305460C4608787B
S31500000ED000932B21ADF802008DF80010F268029302
S31500000EE0039304930593684602A9904710B106B090
S31500000EF0BDE8F087684603F025FE28B1082006B055
S31500000F00BDE8F0870120704706AF029B47F8140D35
S31500000F1006213A463669EB616846B0479DF80410EB
S31500000F2085F821104AB212F1210F00F0C9807748E6
S31500000F30A378D0F80080002AC0F2C78002F1604191
S31500000F401B0101F56141DBB281F8003358F83230FC
S31500000F5000213A461D606846B0479DF8041085F8A2
S31500000F6020104AB212F1210F00F0AA80002A6378FD
S31500000F70C0F2C18002F160411B0101F56141DBB2A3
S31500000F8081F80033BDF80E3058F832205B0754BFA5
S31500000F9001230023156085F8223023782B71EE6932
S31500000FA0D4F80890E0786179E2682369AB6100279C
S31500000FB06871A9716A6168462F61EF6099F800A0AF
S31500000FC099F8038003F05CFDF36A23F00103F362F2
S31500000FD0F36A23F4E023F362336B43F002033363D3
S31500000FE0336B43F001033363336B23F00203336344
S31500000FF099F80220F36A02F0070223F0E06343EA5D
S3150000100002634FF0FF32F3627266B7642179BAF178
S31500001010010F15BF4FF480624FF480424FF4807386
S315000010204FF48053012962D0B8F1020F5CD0B8F1B9
S31500001030000F03D143EA430342EA4202E178012961
S315000010404BD0A1796B62AA62002935D0E9694A6161
S31500001050E9694A62EA699361EA69136195F92100CF
S3150000106003F044FD95F8212053B2002B0DDB5B09FC
S315000010709B0003F1604303F5614302F01F02012167
S3150000108001FA02F2C3F880211A6095F9200003F0F4
S315000010902DFD95F8202053B2002B0DDB5B099B003C
S315000010A003F1604303F5614302F01F02012101FAD7
S315000010B002F2C3F880211A60154B2B60002016E758
S315000010C0684603F073FD0B2011E7124801F00F018B
S315000010D01B010844DBB2037638E7A2796B62AB6288
S315000010E0002AE9D01A46B3E75B005200A6E7194684
S315000010F013460A4698E7074801F00F011B0108440A
S31500001100DBB203763EE700BF98650000286B00005F
S3150000111043494752FCEC00E000287CD03F4B026874
S315000011209A4201D0072070472DE9F0413C4B90F8D8
S3150000113021201E6890F9207053B2002B82B0984689
S315000011400FDB5B0920330121364C02F01F0201FA46
S3150000115002F244F82320BFF34F8FBFF36F8F90F94D
S3150000116021300446184603F0C1FC94F8212053B2FE
S31500001170002B09DB5B09603302F01F0201212948BD
S3150000118001FA02F240F8232094F8203058B20028E1
S315000011900FDB400920300122224903F01F0302FA27
S315000011A003F341F82030BFF34F8FBFF36F8F94F9ED
S315000011B0200003F09BFC94F8202053B2002B09DB9F
S315000011C05B09603302F01F020121164801FA02F2A0
S315000011D040F82320E369DA6A002502A822F001021A
S315000011E0DA622B219D615D615D621D610195237946
S315000011F000F8041DADF8063003F0D8FC56F8383078
S315000012006561A5611D6056F8373028461D6025606A
S3150000121002B0BDE8F0810120704700BF4349475244
S31500001220286B000000E100E0002848D0264B026849
S315000012309A4201D00720704710B5C369DA6A22F0D6
S315000012400102DA624279012A02D0C269816A5161D9
S31500001250826A5A62426A9A61426A1A61044690F93F
S31500001260210003F043FC94F8212053B2002B0DDB40
S315000012705B099B0003F1604303F5614302F01F0223
S31500001280012101FA02F2C3F880211A6094F92000C4
S3150000129003F02CFC94F8202053B2002B11DB5B09E1
S315000012A09B0003F1604303F56143012102F01F0235
S315000012B001FA02F2C3F880211A60002010BD012055
S315000012C07047002010BD00BF434947522DE9F04149
S315000012D084B0EFF30384214B103CE4B266B21B6882
S315000012E053F836301D68D5F81C802F79304603F048
S315000012F0FDFBD8F84C30D3B1AA792969AB60012A35
S315000013004FF00003E9602B6115D06B6963B1A868E3
S31500001310E968AA69019000248DF800708DF80140F3
S31500001320029103926846984704B0BDE8F0812B61AC
S3150000133004B0BDE8F0819E42E7DB7609203604F072
S315000013401F04074BA24043F82620BFF34F8FBFF37D
S315000013506F8F6B69002BDAD1E6E700BF286B0000C0
S3150000136000E100E030B585B0EFF303800E4B103896
S3150000137040B21B6853F830301C68257903F0B6FB81
S31500001380236962690133236162B1A1690391012076
S315000013904FF0FF318DF801008DF800500293019156
S315000013A06846904705B030BD286B000020B1034B5E
S315000013B01B68036000207047012070470C65000021
S315000013C02DE9F04782B002AC002544F8045D3C4D9F
S315000013D08946AF6982469046214603201E464C4602
S315000013E00025B847B8F1060F34D8DFE808F00F3704
S315000013F04953575B040000214FF47A7202FB09F24D
S315000014000B46019804F02AFD04460D469AF813305F
S31500001410012B07D000230A9A00201370346002B013
S31500001420BDE8F0874FF6FF700021A94208BFA04231
S315000014304FF00003EFD2A208AF0842EA8572B94224
S3150000144003F1010308BF904214463D46DBB2E2D2E7
S31500001450052BF0D1032002B0BDE8F087019816A352
S31500001460D3E90023A9FB000104F0F8FC04460D466D
S315000014709AF81330012BD5D04FF0FF300021D4E776
S315000014800198104A0023A9FB000104F0E7FC04467A
S315000014900D46EDE701984FF47A72F3E7019CA9FB3C
S315000014A00445E5E72B464A460198002104F0D6FCA0
S315000014B004460D46AAE700BF00CA9A3B000000009A
S315000014C0F465000040420F00012970B514461E461F
S315000014D020D01CD3022913D1A0FB02010023114AFC
S315000014E0002504F0BBFC8D4208BF84420AD00029C7
S315000014F008BFB0F1FF3F05D08D4208BF844203D23A
S31500001500032070BD4FF0FF303060002070BD002119
S315000015100025E8E7A0FB020100236422002504F071
S315000015209DFCE0E7A086010068B1084BC2689A42BC
S3150000153001D00720704783682BB1DA6A22F00102D6
S31500001540DA62002070470120704700BF5450470000
S3150000155068B1084BC2689A4201D007207047836879
S315000015602BB1DA6A42F00102DA62002070470120EC
S31500001570704700BF5450470030B129B1074BC268CD
S315000015809A4203D007207047012070478368002BDA
S31500001590FAD09B6C0B600020704700BF5450470088
S315000015A000B3114BC2689A4201D007207047836886
S315000015B0C3B130B4EFF31084012383F3108883683A
S315000015C0DA6AD96A002021F00101D9629864DD6ADD
S315000015D002F0010125F001020A43DA6284F3108861
S315000015E030BC7047012070475450470078B170B541
S315000015F01D4CC568A54284B002D0072004B070BD5A
S315000016008468002C2ED021B9032004B070BD0120BF
S3150000161070470DF10B030025009303AB04460395B9
S315000016208DF80B50FFF7CCFE0028E7D1A368DA6AE5
S31500001630D96A21F00101D962D96A9DF80B4021F0DF
S31500001640E06104F0070441EA0461D96203990139B3
S3150000165059669864D96A02F0010221F001010A4331
S31500001660DA62CBE70120C9E75450470030B129B10F
S315000016701E4BC2689A4203D007207047012070476C
S315000016802DE9F041876882B06FB37B6E0E4602A9E2
S3150000169000250133B36041F8045DFA6A0446144834
S315000016A0C2F302688369032098474FEA480801237A
S315000016B003FA08F2019BB3FBF2F373603B6B03F092
S315000016C001033370FB6A13F0010F0CBF01232B4695
S315000016D03373237C03EB83035B00B6332846F38125
S315000016E002B0BDE8F0810120FAE700BF5450470080
S315000016F0F465000008B3F0B52B4CC568A54283B06D
S3150000170002D0072003B0F0BD8768C7B115461E4654
S315000017107A6E02AB04460846002143F8041D0132E6
S315000017202946FFF7D1FE0028ECD1019BA26843B9F8
S315000017308EB1012E24D01846E4E70120704701201F
S31500001740E0E7591C14D076B9116B21F440311163CE
S3150000175030465365D6E7136B23F4403343F4003326
S3150000176030461363CEE7012E18D093650020C9E7F3
S3150000177076B1012EC6D1136B43F040731363C1E7F4
S31500001780116B21F0407141F0007118461163B9E701
S31500001790136B43F4403330461363B3E7116B21F008
S315000017A040711163E1E700BF54504700002847D05D
S315000017B0244BC2689A4201D0072070478368002BE9
S315000017C03ED030B59A6B22F0C0029A63DA6A22F0F4
S315000017D00102DA62817C4AB2002A83B00DDB52092B
S315000017E020320124184D01F01F0104FA01F145F8D9
S315000017F02210BFF34F8FBFF36F8FDA8E22F4807201
S31500001800DA869A8E044622F4807202A800252B21DD
S315000018109A860195237C00F8041DADF8063003F086
S31500001820C5F994F91230657413F1210F04D0074AF3
S31500001830126852F833301D600020E06003B030BDFE
S31500001840012070475450470000E100E0286B00007B
S31500001850002960D000285ED02DE9F041A44F8AB05F
S3150000186000230C460546487C04932B21ADF8120054
S315000018708DF81010FA688DF80B30039306930793D2
S315000018800893099304A806A99047064610B10AB022
S31500001890BDE8F0810AAA069942F8140D3B69A960D1
S315000018A004A80621BDF81E809847BDF81E309DF895
S315000018B01420AA745B075CBF0123EB740DF10B03C4
S315000018C048BFEE746168227A0093284603ABFFF79F
S315000018D077FD0028DBD16369002B00F0538195F971
S315000018E01220213222D0A2696A602B60637C2B749D
S315000018F02378012B4FF0000200F04981022B6A7415
S3150000190006920AD004A803F01DF9074680B1082004
S315000019100AB0BDE8F0810120704706ABE068217C83
S31500001920039AFFF7D1FD0028ECD0B0E70B20AEE715
S31500001930AE6804A803F0A4F8F16A4FEAD8084FF09D
S31500001940FF3321F001014FF4254E012028F001025A
S31500001950F162C6F800E0376177617761F761376257
S315000019607762B762F76230637763B763F7633764AA
S31500001970B764F36433657365B3657366B366C6F8B7
S315000019808870C6F88C308AB17764F3663367F3677C
S315000019907367C6F88030B367C6F88430C6F89030EF
S315000019A0C6F89430C6F89830C6F8A070AE680698A7
S315000019B0F36A9DF80B10039A23F4E023F362336B6A
S315000019C043F002033363336B43F001033363336B3A
S315000019D023F002033363F36A01F0070123F0E063A7
S315000019E043EA0163013A0021F3627266B164E36976
S315000019F033B11A78002A40F081809A78002A3CD1C7
S31500001A00B36B23F0C00343F04003B3636369002B59
S31500001A1000F0C080A87C374AA37C126841B2002936
S31500001A20C0F2A88001F160401B0100F56140DBB205
S31500001A3080F8003352F8313095F912001D6003F03A
S31500001A4055F8AA7C53B2002B0DDB5B099B0003F112
S31500001A50604303F5614302F01F02012101FA02F21D
S31500001A60C3F880211A60E37C1BB1F36A43F00103DB
S31500001A70F362214BEB60002009E7AA68D978938EC0
S31500001A80277801F0010E23F0100343EA0E13938624
S31500001A90938E01F0030E23F0C00343EA8E13938660
S31500001AA0938E012F43F00C0393867CD0938E002FE8
S31500001AB075D023F00C0343F008039386938E23F02E
S31500001AC0030343F001039386136C23F4402343F48A
S31500001AD080231364136B002840F0A58023F0407325
S31500001AE043F000731363938E43F48073938687E702
S31500001AF098650000286B000054504700F28E5F780E
S31500001B0094F800E007F0010C22F0100242EA0C12F1
S31500001B10F286F28E07F0030C22F0C00242EA8C1223
S31500001B20F286F28EBEF1010F42F00C02F2865DD013
S31500001B30F28EBEF1000F55D022F00C0242F00802E0
S31500001B40F286F28E22F0030242F00102F286326C35
S31500001B5022F4403242F480323264326B002869D17A
S31500001B6022F4403242F400323263F28E42F4807242
S31500001B70F28642E7414F00F00F001B010744DBB23B
S31500001B803B7657E72278012A7FF4B0AEA7E66B745E
S31500001B900692B7E62378012B7FF465AF3AE723F088
S31500001BA0030393869FE700231365136C23F44023F6
S31500001BB043F480231364EB7C012B0CBF4FF6FF73B9
S31500001BC04FF0FF339365938E23F00303002938D13A
S31500001BD043F002039386938E23F00C0343F0040331
S31500001BE0938680E722F00302F286BEE7F164326C48
S31500001BF022F4403242F480323264EA7C012A0CBF7D
S31500001C004FF6FF724FF0FF327265F28E22F003023A
S31500001C100FBB42F00202F286F28E22F00C0242F074
S31500001C200402F286A1E7411C23D023F0407313631C
S31500001C30906558E7471C18D022F44032326370652D
S31500001C4093E743F001039386938E23F00C0343F04E
S31500001C500803938647E742F00102F286F28E22F0ED
S31500001C600C0242F00802F2867FE742F44032326309
S31500001C707BE743F04073136335E700BFFCEC00E0FD
S31500001C80024658B1064B07491B68002B08BF0B4696
S31500001C900020596803EB81031360704701207047E9
S31500001CA08C00FE1FD066000088B10A4B1B6863B12A
S31500001CB05A6800F1100103EB820353F8042F40F831
S31500001CC0042B8842F9D1002070471C207047012060
S31500001CD0704700BF8C00FE1F70B36AB3174BF0B598
S31500001CE01E681EB3164B07781B68002404E00134F7
S31500001CF0B44203F1080319D09D79BD42F7D193F898
S31500001D0005E04588B5EB9E0FF1D1DD7990F801E04D
S31500001D1005F0070CF445EAD1B1EBD50FE7D19B8866
S31500001D201470C3F3090353800020F0BDDF21FF23A5
S31500001D30117053800B20F0BD012070470C01FE1F6F
S31500001D40286B000020B1034B1B680360002070471E
S31500001D5001207047B065000070B42A4C216851B16B
S31500001D60234604F57F70002201E053F8041F8342E6
S31500001D700A44FAD11AB100BE1D2070BC7047224D2C
S31500001D8022482A600368190CB1F5807F02D0002032
S31500001D9070BC7047196801390331F8D81C495E6A6E
S31500001DA08E42F4D12B6001686368486804EB8303B4
S31500001DB001EB800101F12300233301214FF47E451D
S31500001DC003E0013201310138013B25FA02F4E40750
S31500001DD007D5072A10D0082A07D01E780478A6420D
S31500001DE0C9D11029EDD10020D2E70478372CE8D0EC
S31500001DF01E78A642E5D0BEE706781C78A642E0D259
S31500001E00B9E700BFD06600008C00FE1F9CB17F4082
S31500001E105237465300285ED000295CD08B4B2DE903
S31500001E20F0439A6890F800C003EB82029478A445C8
S31500001E3037D24FEA1C1802EB88060CF00F073589DB
S31500001E40D2F804E025FA07F919F0010F29D0072F77
S31500001E50B67A09D902EB88080CF0070798F80BC088
S31500001E600CF00F0C66442D0ADFF8E481DFF8E4C1BC
S31500001E7018F80780754F08EA050524091CF805506F
S31500001E80023402EB8402AC1902EB440532F814204A
S31500001E906C78C2F30902250603EB820305D4002BF6
S31500001EA04BD14FF4AF60BDE8F08317F82220457898
S31500001EB05208FDB14FF0020E012604271C78E407F4
S31500001EC005F1FF3552D5052A00F2BE80DFE802F0A3
S31500001ED0332D211C1A05012070479A781EFB0264D7
S31500001EE0033204EB9202920013441A7854082246F5
S31500001EF0002DE3D1042A00F2A480DFE802F0636338
S31500001F0063503B000822EFE79A7817FB02629200C3
S31500001F10EAE793F804C09C7814FB0CF2D41C0CF18D
S31500001F20030204EB92029200DEE71A79033222F0F2
S31500001F3003020C32D8E70C22D6E74478B4B9DC7831
S31500001F40C4F303144C72DC780125C4F303048C72C9
S31500001F508D804088002843D137F822200EEB0222DC
S31500001F600A609B78CB800872C86015E040F2795011
S31500001F70BDE8F083DA78C2F303124A72DA78C2F364
S31500001F8003028A725878C88000228A800A72CA6060
S31500001F905B680B608307E9D50020BDE8F083DA783B
S31500001FA0C2F303124A72DA78C2F303028A725A78CB
S31500001FB0CA809A788A80043304200022CB60087293
S31500001FC00A60E9E7DC78C4F303144C72DC78C4F3E6
S31500001FD003048C721D79ACB28C804088844203D88D
S31500001FE040F27A50BDE8F083DC889E68012A04FB43
S31500001FF000640C601CD0022A0AD09C785B78002210
S3150000200043EA0424CC800A72CA60002CE8D0C3E7F5
S315000020101C18EA1C247BCC809D780D72920805FB67
S31500002020002003EB80030C33CB60002CD8D0B3E741
S31500002030034400221C7BCC800A72CA60002CCFD0DD
S31500002040AAE76420BDE8F08300224DE7D0660000D1
S315000020501065000018650000034B04301B6823F868
S3150000206020100020704700BFD000FE1F034B021D4A
S315000020701B68002023F82200704700BFD000FE1F17
S31500002080034B1A68137863F07F03137000207047C0
S31500002090D000FE1F034B1A68137803F07F031370FA
S315000020A000207047D000FE1F20B1034B1B68036061
S315000020B00020704701207047D065000060B10128FC
S315000020C008D1094B1B680020402141221871197163
S315000020D01A71704701207047034B1B68402141224B
S315000020E0987099709A707047D000FE1F002836D0FD
S315000020F070B51C4986B000230B220193029303930B
S31500002100049305930546CB688DF8042001A802A91F
S315000021109847044608B106B070BD134E029B336063
S3150000212001A802F0ADFC6B6873B130682346AA685B
S3150000213012F8231002EB83020431528820F8212082
S315000021406A6801339A42F2D828780028E3D03268C8
S315000021501378002063F07F03137006B070BD012072
S31500002160704700BF98650000D000FE1F094A0A4B61
S3150000217012680A48916910B4D46919604FF4004294
S315000021800021DC60586059619A601A615DF8044B61
S31500002190704700BFA800FE1F9000FE1F00127A00C5
S315000021A0374B1B6893F8283013F030023DD0102AC5
S315000021B00DD0202A3AD0DFED337A334AF0EE676A43
S315000021C067EEA67AFCEEE77AC2ED057A7047028DD5
S315000021D02E4902F0030231F8121000294CD05B069A
S315000021E010B44AD5038D13F0100F0CBF032400243E
S315000021F0254A038D52F824005DF8044B07EE900A39
S31500002200B8EE677A07EE901AB8EE676AC3F305234D
S31500002210C7EE067A013306EE903AFAEEEF6A67EEFB
S31500002220A67AFCEEE77AC2ED057A704790F82B3075
S31500002230174A9B0932F813100029F6D0124A90F873
S315000022402B30D2ED037A03F01F03B8EE677A06EE61
S31500002250903A07EE901AF8EE666AB8EE676AF7EEFD
S31500002260007A76EEA76AC7EE067A67EEA67AFCEEE5
S31500002270E77AC2ED057A704770470324B8E700BFD6
S31500002280A800FE1F000000009000FE1FDC65000095
S31500002290D4650000F8B50D4B1B68064693F8205030
S315000022A093F8217000200C4602F0F8FC96F81324EF
S315000022B0E9B2BC400C4022EA010344EA030186F875
S315000022C013140020BDE8F84002F0B8BCA800FE1FB9
S315000022D0F8B50D4B1B68064693F8225093F8237009
S315000022E000200C4602F0DAFC96F88124E9B2BC40E4
S315000022F00C4022EA010344EA030186F88114002017
S31500002300BDE8F84002F09ABCA800FE1F38B50546A5
S315000023100C46002002F0C2FC052C0AD8DFE804F0C7
S3150000232019242F033A0E95F8323023F0010385F86D
S3150000233032300020BDE8384002F080BC95F82A30E3
S3150000234023F0010385F82A300020BDE8384002F06A
S3150000235075BC95F8363023F0010385F83630002039
S31500002360BDE8384002F06ABC95F8383023F0010326
S3150000237085F838300020BDE8384002F05FBC95F89B
S31500002380903423F0010385F890340020BDE83840EE
S3150000239002F054BC95F8803423F0010385F88034AC
S315000023A00020BDE8384002F049BC00BF38B50546FC
S315000023B00C46002002F072FC052C0AD8DFE804F077
S315000023C019242F033A0E95F8323043F0010385F8AD
S315000023D032300020BDE8384002F030BC95F82A3093
S315000023E043F0010385F82A300020BDE8384002F0AA
S315000023F025BC95F8363043F0010385F836300020C9
S31500002400BDE8384002F01ABC95F8383043F00103B5
S3150000241085F838300020BDE8384002F00FBC95F84A
S31500002420903443F0010385F890340020BDE838402D
S3150000243002F004BC95F8803443F0010385F880343B
S315000024400020BDE8384002F0F9BB00BF03290ED0DA
S31500002450052907D009B10020704790F83C0000F02C
S315000024600100704790F83C00C0F34010704790F8A8
S315000024703C00C0F3C000704705292ED8DFE801F004
S315000024800A11181F260390F82A0000F0010080F0B8
S315000024900100704790F8360000F0010080F001005E
S315000024A0704790F8380000F0010080F00100704796
S315000024B090F8900400F0010080F00100704790F859
S315000024C0320000F0010080F00100704790F88004AF
S315000024D000F0010080F0010070470020704700BF47
S315000024E0036A90F82630704738B5054600200C463A
S315000024F002F0D4FB95F8133404F0010123F04003F5
S3150000250043EA811185F813140020BDE8384002F033
S3150000251095BB00BF38B505460020144602F0BEFB49
S3150000252095F8A22004F00F0422F00F02144385F858
S31500002530A2400020BDE8384002F080BB084B1B6873
S3150000254093F8283013F0300F04D104288CBF0020F4
S315000025500120704705288CBF00200120704700BF6E
S31500002560A800FE1F06288CBF00200120704700BF70
S3150000257090F8260000F00700704700BF38B5054602
S3150000258000200C4602F08AFB95F8261004F007049A
S3150000259021F007010C4385F826400020BDE83840AD
S315000025A002F04CBB074B1B6893F828305B0601D43E
S315000025B003207047038D13F0100F0CBF032000207B
S315000025C0704700BFA800FE1F38B5044600200D4620
S315000025D002F064FB238D032D0CBF23F0100343F0A0
S315000025E0100323850020BDE8384002F027BB00BF5A
S315000025F038B5224C2DED028B236893F8283003F072
S315000026003003102B0546B0EE408A1CD0202B02D09A
S31500002610BDEC028B38BD002002F040FBFCEEC87A10
S3150000262095F82B1017EE903A013B03F01F0221F0AC
S315000026301F03134385F82B30BDEC028B0020BDE849
S31500002640384002F0FBBA002002F028FB78EE087A48
S315000026502A8DFCEEE77A22F47C5217EE903A013B83
S3150000266003F03F0342EA03232B85002002F0E6FA3B
S31500002670236893F8283003F03003C7E7A800FE1F4D
S3150000268070B51E4C236893F8283003F03003102BE6
S3150000269082B0054619D0202B01D002B070BD184B70
S315000026A0002033F8114002F0F9FA95F82B3004F0C7
S315000026B0030403F03F0343EA8413002085F82B301C
S315000026C002B0BDE8704002F0B9BA0E4B019100208D
S315000026D033F8116002F0E2FA2B8D06F0030623F0C0
S315000026E003031E432E85002002F0A8FA23680199F1
S315000026F093F8283003F03003CDE700BFA800FE1F93
S31500002700EC650000E465000038B51A4B1A6892F8CB
S31500002710293092F82A200546180748BF08784FF056
S31500002720000448BF60F30E34D80644BF487860F30F
S315000027300A24980644BF887860F30614580644BFF6
S31500002740C87860F30204D20744BF0A7962F31244E0
S315000027501B0644BF4B7963F31E748B79002063F329
S315000027601A6402F09BFA2C620020BDE8384002F0A1
S3150000277065BA00BFA800FE1F036AC3F302330B70DD
S31500002780036AC3F302234B70036AC3F302138B700D
S31500002790036A03F00703CB70036AC3F302430B71AA
S315000027A0036AC3F302734B71036AC3F302638B714B
S315000027B0704700BF144B42781B6893F8241091426F
S315000027C01ED393F8262090ED017A07EE902AF8EEB4
S315000027D0677AF4EEC77AF1EE10FA11D493F8253041
S315000027E007EE903AF8EE677AB4EEE77AF1EE10FA71
S315000027F006D40078032805D0B0FA80F04009704767
S315000028000020704701207047A800FE1F062921D826
S31500002810DFE801F0080C1014181C0400006AC0F36D
S3150000282002607047006AC0F302307047006AC0F366
S3150000283002207047006AC0F302107047006A00F079
S3150000284007007047006AC0F302407047006AC0F391
S31500002850027070470020704710B50446FFF7D6FF98
S3150000286094F82630034A03F0070352F8233023FA7C
S3150000287000F010BD9000FE1F024B53F82000C84028
S31500002880704700BF9000FE1F30B5044683B001209C
S315000028900D4602F003FA02A8002300F8013D01F0FC
S315000028A03DFE94F8AA30D806FBD494F8A030D90699
S315000028B0F7D494F8AA3023F0010384F8AA3094F8E8
S315000028C0AA30DA06FBD494F8A030DB06F7D4042D40
S315000028D02BD094F8A02005F0030322F00302134343
S315000028E084F8A03094F8AA30D806FBD494F8A03027
S315000028F0D906F7D494F8AA30042D0CBF43F001038F
S3150000290023F0010384F8AA3094F8AA30DA06FBD43F
S3150000291094F8A030DB06F7D49DF8070001F012FE0C
S31500002920012002F08BF903B030BD94F8A03043F0DB
S31500002930030384F8A030D5E790F8AA30DB075ABF26
S3150000294090F8A00000F003000420704710B504467C
S31500002950002002F0A3F994F8403063F07F0384F876
S31500002960403094F8403043F0010384F840300020B2
S31500002970BDE8104002F062B910B50446002002F02E
S315000029808DF994F8403023F0010384F8403094F830
S31500002990403003F07F0384F840300020BDE810404B
S315000029A002F04CB990F84000C009704790F8410019
S315000029B000F00100704700BF38B590F8413013F0C1
S315000029C0010401D1002038BD0546002002F066F959
S315000029D095F8413023F0010385F84130002002F0DC
S315000029E02DF9204638BD00BF38B5054600200C46F7
S315000029F002F054F995F8301004F0010421F00101B9
S31500002A000C4385F830400020BDE8384002F016B986
S31500002A1010B50446002002F041F994F8523043F014
S31500002A20010384F852300020BDE8104002F006B9D8
S31500002A3010B50446002002F031F994F8523023F024
S31500002A40010384F852300020BDE8104002F0F6B8C9
S31500002A5070B5044600200D46164602F01FF994F89C
S31500002A603E3003F07F0384F83E3094F83E3006F0A3
S31500002A70070223F0700343EA021284F83E2094F81A
S31500002A803E1005F0070521F007010D4384F83E507E
S31500002A900020BDE8704002F0D1B800BF10B5044672
S31500002AA0002002F0FBF894F83E3063F07F0384F8D0
S31500002AB03E300020BDE8104002F0C0B810B5044614
S31500002AC0002002F0EBF894F83E3003F07F0384F820
S31500002AD03E300020BDE8104002F0B0B810B5044604
S31500002AE0002002F0DBF894F8533043F0010384F839
S31500002AF053300020BDE8104002F0A0B810B50446DF
S31500002B00002002F0CBF894F8533023F0010384F848
S31500002B1053300020BDE8104002F090B838B50546A5
S31500002B2000200C4602F0BAF895F8243004F00701AC
S31500002B3023F0700343EA011185F824100020BDE854
S31500002B40384002F07BB800BF70B40F4B0F4C1D68C5
S31500002B500021196094F823200138B0F1807FD2B2A9
S31500002B600DD2F026072502F0F002586084F82360A3
S31500002B7099601D6084F82320012070BC70471D6099
S31500002B80084670BC704700BF10E000E000ED00E0B2
S31500002B9090F8503001F00F0123F00F03194380F82D
S31500002BA05010704790F8500000F00F00704700BFBB
S31500002BB090F8503063F07F0380F85030704700BFC4
S31500002BC090F8503003F07F0380F85030704700BF14
S31500002BD090F85000C009704790F8D13021B123F029
S31500002BE0010380F8D130704743F0010380F8D130FB
S31500002BF0704700BF90F8D13063F07F0380F8D13082
S31500002C00704700BF90F8D13003F07F0380F8D130D1
S31500002C10704700BF90F8D100C009704738B5054627
S31500002C2000200C4602F03AF895F8A51004F00704C7
S31500002C3021F007010C4385F8A5400020BDE8384087
S31500002C4001F0FCBF20B1034B1B68036000207047F6
S31500002C50012070476866000030B52A4C87B02046D0
S31500002C6001F09CFD06A8284B002503220095DB6891
S31500002C7000F8182D02A90295039504950595984725
S31500002C80029860604FF6FF7329460193FFF7F4FB45
S31500002C9028B910E0019B43B1019B013B0193606899
S31500002CA00021FFF7D3FB0028F4D0019B1BB94FF49A
S31500002CB0CD7007B030BD60680621FFF7AFFF4FF655
S31500002CC0FF730193FFF752FA60680421FFF76EFB6A
S31500002CD004E0019B43B1019B013B01936068042121
S31500002CE0FFF7CAFB0028F4D1019B002BDFD06068F8
S31500002CF004210522FFF7F4FB60680021FFF7E8FADC
S31500002D000020D6E7A800FE1F9865000070B169B1E3
S31500002D1070B5074E044670680D46FFF729FC294634
S31500002D2020707068FFF728FD002070BD01207047F5
S31500002D30A800FE1F70B582B0002940D005460028C5
S31500002D403AD0344C6068FFF7F7FD0428064633D0C6
S31500002D5060686946FFF710FD23689A680AB1032E7A
S31500002D6037D0DA68F2B1022E1CD193F829205969BE
S31500002D70160733D4D00638D496063BD450063ED434
S31500002D80120603D59DF805208A422BD393F82A30E4
S31500002D90DB0703D59DF804308B4223D39DF806301C
S31500002DA08B421FD32946012001F00AFD6068FFF718
S31500002DB0CDFD002002B070BD012002B070BD154DE2
S31500002DC06868FFF7F3FD0446F0B14FF4CB7002B02C
S31500002DD070BD93F8292019691007CBD59DF800001E
S31500002DE08842C7D2052002B070BD9DF80100884216
S31500002DF0C2D2F7E79DF802008842BFD2F2E79DF8FB
S31500002E0003008842BCD2EDE76868FFF7B5FD2046AF
S31500002E10D3E700BFA800FE1F38B5124C6068FFF765
S31500002E20C5FD78B16068FFF7A3FB236893F82830E7
S31500002E3013F0300F054603D05B0608D405280DD0E5
S31500002E40032D0BD06068FFF7B7FD002038BD606822
S31500002E50FFF7A8FB052DF3D10328F3D140F2971015
S31500002E6038BD00BFA800FE1F08B5034B01465868D1
S31500002E70FFF7BAFD002008BDA800FE1F08B5034BEA
S31500002E805868FFF7C5FD002008BD00BFA800FE1F5B
S31500002E9008B5034B5868FFF7CBFD002008BD00BFFF
S31500002EA0A800FE1F08B5044B0A4601465868FFF7FE
S31500002EB0CFFD002008BD00BFA800FE1F08B5034BCC
S31500002EC05868FFF7EBFD002008BD00BFA800FE1FF5
S31500002ED008B5034B5868FFF7F1FD002008BD00BF99
S31500002EE0A800FE1F38B50446FFF728FB08B90320E3
S31500002EF038BD631E012B11D9042C0FD02CB1032C25
S31500002F0003D0052C01D0002038BD114D214668683C
S31500002F10FFF7B2FA78B94FF4C87038BD0C4B2146AA
S31500002F205868FFF7A9FA40F29113002814BF184613
S31500002F304FF4C87038BD68682146FFF787FA40F23B
S31500002F40931300280CBF18464FF4C97038BD00BF54
S31500002F50A800FE1F70B506464FF6FE7440F29315A4
S31500002F6001E0013C0CD03046FFF7BCFFA842F8D088
S31500002F7038B16FF4C873C318022B38BF002070BD78
S31500002F80284670BD70B582B00D460446FFF7D6FAE6
S31500002F9010B9032002B070BD624E052C2146706840
S31500002FA015D0FFF769FA18B140F2911002B070BD62
S31500002FB0012C55D9032C23D0631E012B63D9042C75
S31500002FC02CD0002C59D0032C1FD00020E2E7FFF7AD
S31500002FD053FA00284BD1002D5BD07068FFF7C8FA72
S31500002FE00528E1D02846FFF7E5FB0028D1D0706818
S31500002FF02978FFF741FA002861D14FF4CA70C9E772
S315000030007068FFF799FC04282FD070682146FFF7F7
S315000030101DFA00283FD040F29310BBE74FF6FF732E
S31500003020214670680193FFF727FA3E4B01460028B8
S3150000303041D070680421FFF769F904E0019B43B1B0
S31500003040019B013B019370680421FFF715FA0028E4
S31500003050F4D0019B002B0CBF4FF4CD70002099E7F4
S315000030607068FFF769FC0428A6D1052092E770680E
S31500003070FFF796F840F291108CE770682146FFF74B
S31500003080E5F90028C7D170682146FFF73FF900200F
S3150000309080E701207EE73368706893F82710FFF712
S315000030A0F9F870680021FFF71FFA706803210922FA
S315000030B0FFF730FAE7E75868FFF70AF9B9E721465C
S315000030C07068FFF7C3F90028A5D1336893F8283054
S315000030D05B0603D570682978FFF776FA6978706819
S315000030E0104CFFF7CDFA95ED010A7068FFF780FAEC
S315000030F07068FFF755F8336893F82810052001F03B
S315000031000F01FFF7B9FB33685B68984288BF00215F
S31500003110606898BF0121FFF7B7FB70680521FFF7CC
S31500003120F5F852E7A800FE1F70B582B00446FFF717
S3150000313005FA10B9032002B070BD2C4D6868FFF780
S3150000314017FA84422BD0052824D0012C2AD068688F
S31500003150264E2146FFF790F9D0B1022C14D0042C4C
S3150000316029D01CB1032C01D0052C11D168681F4D44
S315000031702146FFF76BF938B940F29310DBE7706828
S315000031802146FFF779F918B168682146FFF70EF96D
S315000031900020D0E76868FFF705FAA042D5D140F2D3
S315000031A09110C8E76868114EFFF7FCFB0028E6D0CF
S315000031B040F29510BFE770682146FFF7F7F84FF623
S315000031C0FF73019304E0019B43B1019B013B019313
S315000031D068680421FFF750F90028F4D1019B002B01
S315000031E00CBF4FF4CD700020A5E700BFA800FE1F5E
S315000031F001280FD0022801D00020704708B50846E4
S315000032000021FFF7BFFE40B140F29113984208BF7C
S31500003210002008BD0846FFF787BF002008BD00BF95
S31500003220F0B587B00C460546FFF788F910B90320BC
S3150000323007B0F0BD64B3694E326892F829301907B9
S3150000324020D52778A079B842F1D861788F42EED898
S3150000325094F803E0BE45EAD88842E8D823F07F0315
S3150000326003F0FF0113B163798342E0D392F82A3069
S31500003270DF0702D523798342D9D3042D13D148B170
S315000032800520D5E76178E0788842D0D8A079E3E7D1
S315000032900120CDE763790BB10029F1D17068FFF702
S315000032A081FB0028ECD170684C4F0021FFF7ECFA47
S315000032B00023A1798DF8083028468DF81430FFF7E1
S315000032C0DBFA062103907068FFF7C6FA049002A89D
S315000032D001F0B4F90028ABD17868FFF749F98542C7
S315000032E004D07DB3032D2DD0052D2BD070683B4F18
S315000032F06946FFF741FA9DF80620A3799A422AD239
S3150000330021467868FFF700FA78682946FFF736F90C
S3150000331001F084F9324B042D186025D0022D33D0EC
S31500003320012D3AD0032D47D0052D40D070680621D7
S31500003330FFF792FA0123049002A88DF8083001F0F5
S315000033407DF975E770682946FFF780F80028CDD12A
S3150000335040F293106CE778682946FFF70FF9786812
S315000033602146FFF7D1F9D3E733681C4A93F82810B2
S31500003370090617D49A685AB95B68002BD6D07068CC
S315000033800121FFF781FAD1E733689A68002AF3D062
S3150000339070680321FFF778FAC8E733685B68002B8B
S315000033A0C4D0ECE750682946FFF76EFABEE73368EB
S315000033B05B689842BAD8E2E733685A68904201D906
S315000033C0002AB3D19B68984204D9002BAED0002ABC
S315000033D0DED0D4E7002BA9D0DAE700BFA800FE1F95
S315000033E02401FE1F00287DD02DE9F047054686B052
S315000033F006A800232F7800F8113D04A98DF8103097
S315000034008DF811308DF812308DF813308DF8143098
S315000034108DF815308DF81630FFF778FC95F815E025
S31500003420EE7C297DEA7DAB7D2C7E8DF808E0384662
S315000034308DF80A608DF809108DF80B208DF80C3088
S315000034408DF80D40FFF77AF818B9032006B0BDE8ED
S31500003450F0872B7806AA134413F8103C012BF4D0FE
S31500003460022C41D0DFF8E480D8F8003093F82830F9
S3150000347013F0300F14BF06260526002440F29119DA
S3150000348005F1040A052CE1B248D002AB185DFFF73E
S31500003490AFFE08B14845D9D10134B442F2D138461D
S315000034A0FFF758FD0028D1D105F10C013846FFF78A
S315000034B0B7FE0028CAD19DF80740A74210D006AB38
S315000034C0234413F8100C012822D0D8F80400FFF783
S315000034D069F806AB0344014613F8100C012810D016
S315000034E00020B3E7012070472879FFF727F8002866
S315000034F0ABD02B7906AA134413F8103C012BB1D19B
S31500003500A3E7052CECD18F42EAD0FFF771FE9DE7C9
S315000035102146FFF76DFE0028D7D097E79DF80D30BE
S31500003520022BB2D128790021FFF72CFD08B14845BE
S315000035308CD12879FFF70EFD5146002886D105204B
S31500003540FFF720FD0028A7D0A4E700BFA800FE1FB4
S3150000355051B170B500250D600C460646FFF702F81E
S3150000356028B90323184670BD012318467047044B3B
S3150000357031465868FFF770F92B462060184670BD33
S31500003580A800FE1F38B5114D2B6893F8290010F0DE
S31500003590010000D138BD002001F080FB68680C4CAA
S315000035A0FFF706FB01E06CB1013C6868FFF710FB12
S315000035B00028F8D0002001F041FB002C0CBF14209D
S315000035C0002038BD01F03AFB1420E3E7A800FE1FF7
S315000035D0FFFF0F0038B5114D2B6893F8290010F046
S315000035E0010000D138BD002001F058FB68680C4C82
S315000035F0FFF7E6FA01E064B1013C6868FFF7E8FA14
S315000036000028F8D101F01AFB002C0CBF1420002072
S3150000361038BD204601F012FB1420E3E7A800FE1F88
S31500003620FFFF0F00F8B51C4D2B6893F8293013F0F7
S31500003630010324D0194B1E5CFF2E01D10320F8BDD7
S31500003640002001F02BFB6868154CFFF7C1FA07460E
S31500003650FFF7C0FF68683146FFF79AFA01E09CB1B0
S31500003660013C6868FFF79EFA8642F8D14FB9002000
S3150000367001F0E4FA002C0CBF14200020F8BD184617
S31500003680F8BDFFF77FFFF2E7002FFAD1384601F0C9
S31500003690D5FA1420F8BD00BFA800FE1F6066000022
S315000036A0FFFF0F0008B5002001F0F8FA034B586839
S315000036B0FFF7A0FA002001F0C1FA08BDA800FE1F1E
S315000036C008B5054B1B6893F82A309B0701D5FFF711
S315000036D0E9FF002008BD00BFA800FE1F08B50020B6
S315000036E001F0DCFA034B5868FFF78CFA002001F072
S315000036F0A5FA08BDA800FE1F08B5054B1B6893F880
S315000037002A309B0701D5FFF7E9FF002008BD00BF5F
S31500003710A800FE1F70B5164D2B6893F82A3003F0EB
S3150000372002031BB3032802D008B1032070BD044670
S31500003730002001F0B3FA6868FFF76CFA2B6893F87B
S315000037402A309A07064601D5FFF7C8FF6868084D74
S315000037502146FFF741FA36B12B6893F82A309B07CA
S3150000376001D5FFF79FFF002001F068FA002070BD29
S31500003770A800FE1F08B5054B1A6892F82920920783
S3150000378002D55868FFF7AAF9002008BDA800FE1F59
S3150000379008B5054B1A6892F82920920702D5586891
S315000037A0FFF7ACF9002008BDA800FE1F08B5064BC0
S315000037B01A6892F82920520703D501465868FFF780
S315000037C0ADF9002008BD00BFA800FE1F08B9032000
S315000037D0704738B50D46044600F020FF07EE900A04
S315000037E0F8EE676AF7EE007AC7EEA66A07EE905A19
S315000037F007EE104AF8EE677AB8EE477A66EEA77AD1
S31500003800C7EE277AFCEEE77A17EE900AFFF79CF9E7
S3150000381000280CBF1220002038BD00BF20B1034B8A
S315000038201B6803600020704701207047A0660000F7
S3150000383006207047E8B110B584B0002304466846F8
S31500003840009301930293039300F08AFF9DF80C30D6
S31500003850990702D4062004B010BDE3691A88120441
S3150000386009D41B8813F4007F0CBF00201B2004B072
S3150000387010BD012070471B2004B010BD88B1104B4D
S31500003880826A9A4201D007207047C3694BB190F80B
S315000038902420022A07D01A8842F400721A800020D7
S315000038A07047012070471888C0F3C03030B91A88B5
S315000038B06FEA42426FEA52421A8070470820704708
S315000038C04344415298B10B4B826A9A4201D0072079
S315000038D07047C3695BB190F82420022A1A8814BF86
S315000038E022F40072C2F30E021A80002070470120F3
S315000038F0704700BF4344415270B1084B826A9A42F6
S3150000390001D007207047C36933B11B8813F4004FF9
S315000039100CBF0020082070470120704743444152E5
S31500003920D0B1CB1CDBB21E2B01D903207047002976
S3150000393030B40ADB104C0588012354F825408B402F
S31500003940234202D1032030BC70470C4B846A9C4250
S3150000395004D0072030BC7047012070473AB1C369D4
S315000039603BB11031002033F811301380EBE7022011
S31500003970E9E70120E7E700BFD400FE1F43444152B8
S3150000398030B583B002AB002423F8024D14461A4624
S315000039900546FFF7C5FFBDF8063040B9EA88B2F51F
S315000039A0004F08BF1B040020236003B030BD236016
S315000039B003B030BD30B129B1144B826A9A4203D0AC
S315000039C007207047012070470B78DA1CD2B2122A02
S315000039D016D85BB2002B30B407DB0D4C05880122EC
S315000039E054F825409A4022420CD04A78062A09D932
S315000039F0C16949B10B44002083F8E02030BC704710
S31500003A00032070470320F9E70120F7E743444152BA
S31500003A10D400FE1F30B129B13A4B826A9A4203D0D4
S31500003A2007207047012070470379012B34D0F0B589
S31500003A30C76983B0002F62D0C56A002D2ED14D60B4
S31500003A40054602A80C46002320222F4E0193012191
S31500003A5000F8042D2A88009321723369ADF80620F8
S31500003A6002216A4698472B78BDF80220628104330A
S31500003A705B004FF0FF326372E260EB7A012B04D0F9
S31500003A806B882382002003B0F0BD6A6951781378F1
S31500003A9043EA0123E360F3E7032070474FF0FF3367
S31500003AA00122013302FA03F42C42FAD0B4F1805F0A
S31500003AB01FD0B4F1005F08BF6FF00103103307EBAE
S31500003AC043030B6020220126013A06FA02F42C4237
S31500003AD0FAD0B4F1805F0FD0B4F1005F08BF6FF089
S31500003AE00102103207EB4202D31A5B1001334B601E
S31500003AF0A6E76FF00203E1E76FF00202F1E70120AB
S31500003B00C1E700BF434441529865000030B5B0F8A4
S31500003B10803023F00103A0F880300388C3F34133DB
S31500003B20012B038A43F47C5383B00D4603821CD0D9
S31500003B3000240480448220232A88009468468DF855
S31500003B400030ADF8022000F097FFEB6ADB000AD5E3
S31500003B502B6903B11C7002A800222223019200F8EF
S31500003B60043D00F089FF03B030BD038A43F03F03F4
S31500003B700382DDE7002877D03C4B826A9A4201D067
S31500003B8007207047C369002B6ED030B590F83030EF
S31500003B90044658B2002210F1210F83B0A26225D04C
S31500003BA0904219DB400920300121314D03F01F03FB
S31500003BB001FA03F345F82030BFF34F8FBFF36F8F41
S31500003BC094F8303058B2904206DB420903F01F03E6
S31500003BD06032994045F8221000F088FF254B94F991
S31500003BE030201B6853F8323000221A6094F83130C6
S31500003BF058B210F1210F25D0002819DB40092030DA
S31500003C0001211B4D03F01F0301FA03F345F8203091
S31500003C10BFF34F8FBFF36F8F94F8313058B200283F
S31500003C2006DB420903F01F036032994045F8221073
S31500003C3000F05CFF0F4B94F931201B6853F83230CB
S31500003C4000221A60E0692146FFF760FF02A80025FE
S31500003C502023019500F8043D2388ADF8063000F0D6
S31500003C60A5FF284603B030BD0120704743444152AA
S31500003C7000E100E0286B000030B129B1AA4B826A4E
S31500003C809A4203D007207047012070472DE9F04182
S31500003C90C66986B05EB30D46A44A01882B6852F801
S31500003CA02120044623B90320E36206B0BDE8F08173
S31500003CB042F04052D2431A42F5D13188C1F3413124
S31500003CC0012916D06A68002AEDD1002302A80293C2
S31500003CD003930493059300F043FD9DF80820930792
S31500003CE00ED46B6813F0405F0AD02B68DBE7012027
S31500003CF0DBE769680029D6D01A430A42D3D1E4E744
S31500003D002B6813F0405109D030880706CBD45007F2
S31500003D1000F1718196F87A20002AC4D1327B5207CD
S31500003D2000F064816A68E9681A4331EA0202BAD18E
S31500003D300029B8D02A7C002A40F06B819BB2B38060
S31500003D40AB88B382AB8933816B88F380EB88F382CF
S31500003D50EB8973812B6813F0405F03D16B6813F016
S31500003D60405F66D0002302A8029303930493059351
S31500003D70019300F0F5FC6E4B9DF810009B6901A9BC
S31500003D809847019B6B4A934202D803202B688BE726
S31500003D900028FAD16849039A684FA1FB03139B0CCC
S31500003DA002FB03F3A7FB0337BF09FB1FF82BECD875
S31500003DB02B68DA0002D46A68D2001CD5FBB286F8FA
S31500003DC0DE30A37A012B00F0F3802B6813F0805FBE
S31500003DD0738A00F0B58043F480737382738A23F488
S31500003DE080637382EB68728AC3F3007322F0010268
S31500003DF0134373822B68980002D46B68990018D518
S31500003E00FFB286F8DF702B6813F0005F738A00F04C
S31500003E10828043F400737382738A23F4006373828F
S31500003E20EA68738AC2F3407223F0020343EA42034C
S31500003E3073822B7C6A7C03F0030342EA4323A6F8D1
S31500003E4066302B8948F2010293422ED0A6F88030C4
S31500003E502379D4F81C80022B1FD0B8F80070C7F362
S31500003E604137012F2BD094F9300010F1210F14D0D7
S31500003E7000F03CFE94F8302053B2002B0DDB5B09BA
S31500003E809B0003F1604303F5614302F01F02012129
S31500003E9001FA02F2C3F880211A602A8948F2010366
S31500003EA09A4207D02B680020FEE62379D4F81C80BE
S31500003EB0022BD2D148F20103A6F88030F2E72A8914
S31500003EC048F201039A4243D094F9310010F1210FD0
S31500003ED012D000F00BFE94F8312053B2002B0BDB0E
S31500003EE05B099B0003F1604303F5614302F01F0287
S31500003EF09740C3F880711F60B8F8003043F0400364
S31500003F00A8F80030B8F8103023F03F0343F00A0356
S31500003F10A8F81030A7E723F400737382738A43F47A
S31500003F20006373827CE700BF43444152D400FE1F06
S31500003F30F46500003F420F0083DE1B43D34D621041
S31500003F4023F480737382738A43F48063738249E730
S31500003F50B8F8103043F03F03A8F8103094F8312039
S31500003F6050B210F1210F1CD0002818DB4309203372
S31500003F70444902F01F0207FA02F241F82320BFF378
S31500003F804F8FBFF36F8F94F8312050B2002806DBB5
S31500003F90430902F01F026033974041F8237000F096
S31500003FA0A5FDB8F8003023F04003A8F800305AE722
S31500003FB03548002322220193029303930493059329
S31500003FC002A9C3688DF8042001A8984700287FF449
S31500003FD0DDAE01A800F054FD23691A7862F07F0275
S31500003FE01A701A7842F010021A70EEE6EA68002A91
S31500003FF07FF459AE9EE6B1F1405F3FF454AE23F034
S315000040007042002A7FF44FAE2279002A7FF44BAE2D
S3150000401084E60021102202A802F0EEF902A800F0C0
S315000040209FFB9DF80830DB077FF55FAE2A7C072AE9
S315000040303FF65BAE6B7C032B7FF657AE37882B685B
S315000040406968C7F34137012F02EA030001EA02015A
S315000040500DD082427FF427AE328817060DD4002990
S315000040603FF46CAE2A89002A7FF41DAE66E68242D2
S31500004070F2D08A427FF417AEEEE700287FF413AE43
S31500004080EDE700BF00E100E098650000002842D09F
S31500004090002940D0F0B58B888E78C3F30E038DB01F
S315000040A013B103200DB0F0BD054608A80C460893D1
S315000040B009930A930B9300F053FB9DF82C3013F0F1
S315000040C0010FA37904D15A1E022AEAD9052BE8D09A
S315000040D0032B05D903F0FD02812A01D0052BE0D17F
S315000040E0E27912F0DF0FDCD1277AA278022FD8D836
S315000040F0022AD6D8E17809B1052BD2D023690BB1B3
S31500004100022ACED0012E00F07D81B949A86A8842E4
S3150000411003D10820C6E701207047B64E20886169A2
S31500004120B4F804C02B624FF0200E002302930893CC
S3150000413009930A930B932880ADF80A00A961F368E6
S315000041402A71A5F806C085F824708DF808E002A843
S315000041500DEB0E0198470028A4D1BDF82620089B38
S31500004160EB61C2F382035B00C2F3401208332B7289
S315000041706A72A149228851F8220040B90B9F7888BB
S3150000418041F82200FF8840EA074041F822000C2B44
S3150000419000F03F810E2B00F01E81102B00F02381D2
S315000041A002A800F0CFFC00287FF47CAF089008AA94
S315000041B0376902A80221B8479DF82030226985F8A0
S315000041C0303058B2002A00F0638110F1210F00F060
S315000041D02D818A4AA17A126801920028C0F26F8165
S315000041E000F1604E0B010EF5614EDBB28EF8003326
S315000041F095F83030019A52F8302058B200281560F0
S315000042001ADB4209203201217D4F03F01F0301FA18
S3150000421003F347F82230BFF34F8FBFF36F8F95F844
S31500004220303058B2002806DB420903F01F03603223
S31500004230994047F82210376900F058FC08AA02A8EE
S315000042400321B847A3789DF8202085F83120012B5B
S3150000425050B200F0E38010F1210F31D06749E37AC4
S3150000426009680028C0F2238100F160421B0102F5B3
S315000042706142DBB282F8003395F8312051F83030D4
S3150000428050B200281D6019DB4309203301215C4F21
S3150000429002F01F0201FA02F247F82320BFF34F8F04
S315000042A0BFF36F8F95F8312050B2002806DB430923
S315000042B002F01F026033914047F8231000F016FC0D
S315000042C00027AF72EF726F612F6104A804970597FC
S315000042D00697079700F044FA9DF8103003972222BC
S315000042E08DF80C20DA0600F1A680190700F1BD80D2
S315000042F0BDF812306B802946E869FFF707FC0026F7
S3150000430020222388049604A88DF81020ADF81230D8
S31500004310089609960A960B9600F0B2FBEB691E808A
S315000043205E82E969A2780B8802F0030223F4C04397
S3150000433043EA42330B80EA69138823F08003138033
S31500004340237A012B00F089804BB9EA69138843F47C
S3150000435080731380EA69138A23F47C531382EB6912
S31500004360E178DA8901F0030122F0060242EA41020D
S31500004370DA81DA89A188C2F30E02A1F50041B1FA09
S3150000438081F1490942EAC132DA81DA89E17922F01A
S315000043902002A1F12001B1FA81F1490942EA411254
S315000043A0DA81A2791A7308A800F0DAF99DF82C30A0
S315000043B0C3F3400313F0FF0F2B7303D0217B0029B7
S315000043C000F085806B7A012B67D00023084AEB62E8
S315000043D01846AA6266E6E378032B3FF4E1AE002BAB
S315000043E07FF45FAEDCE6E378042B7FF45AAED7E6C3
S315000043F04344415298650000D400FE1F286B00001C
S3150000440000E100E0208940F2011188427FF449AEC4
S315000044107BE6E378022B3FF644AEC1E62369002B28
S315000044203FF419AF10F1210F7FF418AF02A800F086
S31500004430BDFB0B2036E6089709970A970B97F3689A
S3150000444003A808A9984700287FF455AF0121089AC8
S315000044509DF81030A9722A6147E7EA69138A23F4A6
S315000044607C5343F41063138279E700230127F26833
S315000044708DF80D70089309930A930B9303A808A966
S31500004480904700287FF437AF089BEF726B612FE7E8
S3150000449010F1210F3FF4D2AE9BE6EB690022A3F8A0
S315000044A0B021EB6949F69912A3F8A0218DE7194FBF
S315000044B002F00F021B011744DBB23B76DCE6154A1D
S315000044C003F00F031A440901CBB2137690E628468F
S315000044D0FFF7B0F9044640B102A800F067FBE869AF
S315000044E02946FFF713FB2046DCE595F9300000F07E
S315000044F0FDFA95F8302053B2002BFFF663AF5B0947
S31500004500603302F01F020121034801FA02F240F86B
S31500004510232057E7FCEC00E000E100E068B1084A20
S31500004520B2F8003103F00103037092F800316FF323
S31500004530000382F80031002070470120704700BF59
S3150000454000C00140104991F8043143F0010381F89D
S315000045500431B1F80431DB070CD54FF0FF3300E02E
S3150000456033B1B1F80421D20703F1FF33F8D40BB904
S3150000457014207047044A92F8003160F3000382F871
S3150000458000310020704700BF00C0014070B5214DCA
S3150000459082B02B6898470120FFF7D4FF0021AE6850
S315000045A00320B04701211C4AEC698DF80110032352
S315000045B001928DF800300320A047B0F5C97FFAD1EB
S315000045C069460520B0470520A047B0F5C97FFAD156
S315000045D000220124022369468DF806208DF8013059
S315000045E08DF802308DF805308DF800402B698DF876
S315000045F003408DF80440052098472B6E0420984709
S31500004600AB6A20469847EB6A9847AB6D984702B06D
S3150000461070BD00BFF46500000000A04100B583B086
S3150000462002A9002341F8043D034B06209B699847E5
S31500004630019803B05DF804FBF4650000037870B4DC
S3150000464023B1012B3CD0002070BC704742683E4924
S315000046508A426BD93D4B3E4EF1251D71197A41F0C8
S3150000466004011972197A41F008011972197A41F098
S3150000467001011972197AF02441F00201B24219724D
S315000046801C7105D91D71197A41F0100119721C713E
S31500004690304B31499A4294BF0123022303731C46CF
S315000046A091F81C3103F00703A3423FBF91F81C3178
S315000046B023F00703234381F81C310378012BC2D171
S315000046C08368214A93423BD8204BF1221A711A7A09
S315000046D022F004021A721A7A22F008021A721A7A60
S315000046E022F001021A721A7AF02122F002021A72DC
S315000046F01971164BF1221A711A7AF02122F0100262
S315000047001A7219711449037B91F81C2102F00702F1
S31500004710934298D091F81C2103F0070322F0070278
S31500004720134381F81C31002070BC70470B498A4244
S31500004730AED8094A037392F81C31002070BC70474A
S31500004740034A9342DED8D4E7000E27070020004034
S3150000475000C2EB0B0068890900C0014000B4C40424
S315000047600378027B41F2360103F0E00342F00102D6
S3150000477010B44160022443F0130341F204016FF3C5
S31500004780410284600370418002735DF8044B7047F8
S31500004790037843F003030370704700BF014B0360C7
S315000047A0704700BFA4660000044B002103F13002ED
S315000047B043F8041B9342FBD1704700BFDC00FE1F89
S315000047C0024B43F820100020704700BFDC00FE1F9C
S315000047D008B57A4BB3F84031D90700F1C180774B61
S315000047E0B3F840319A0700F1B080744BB3F840310A
S315000047F05B0700F19F80714BB3F84031180700F159
S315000048008E806E4BB3F84031D9067CD46B4BB3F82F
S315000048104001C0F38010002869D1684BB3F84031DD
S315000048201A0658D4654BB3F84031DB0547D4634BC1
S31500004830B3F84031980536D4604BB3F8403159058A
S3150000484024D45E4BB3F840311A0512D45B4BB3F84F
S315000048504031DB0400D408BD594BDB6A002B40F025
S31500004860AA80564AB2F8303143F48053A2F8303168
S3150000487008BD534B9B6A002B40F09A804F4AB2F812
S31500004880303143F40063A2F83031DFE74C4B5B6A0A
S31500004890002B40F08A80494AB2F8303143F48063F5
S315000048A0A2F83031CDE7464B1B6A002B7AD1434A3A
S315000048B0B2F8303143F40073A2F83031BCE7404B14
S315000048C0DB69002B6BD13D4AB2F8303143F480737B
S315000048D0A2F83031ABE73A4B1B68002B5CD1374A64
S315000048E0B2F8303143F08003A2F830319AE7344B06
S315000048F05B68002B4ED1314AB2F8303143F04003A9
S31500004900A2F8303189E72E4B9B69002B3FD12B4A09
S31500004910B2F8303143F01003A2F8303176E7284B75
S315000049205B698BBB254AB2F8303143F00803A2F825
S31500004930303166E7224B1B691BBB204AB2F8303187
S3150000494043F00403A2F8303155E71D4B9B68ABB921
S315000049501A4AB2F8303143F00203A2F8303144E784
S31500004960174BDB683BB9154AB2F8303143F0010307
S31500004970A2F8303133E703209847F4E7022098473E
S31500004980E6E704209847D8E705209847CAE70620B7
S315000049909847BCE79847AEE7002098479FE707206F
S315000049A0984790E70820984781E70920984772E7DB
S315000049B00A20984762E70B20984752E700600040BC
S315000049C0DC00FE1F0278452A2BD8294B9B5CFF2B67
S315000049D025D0F0B403F020064788407806F0FF049F
S315000049E003F01F05FEB101242B2A04FA05F634D084
S315000049F0332A01D1012836D09B091E4A52F82330AA
S31500004A0041BBEFF31082012181F31088196821EA76
S31500004A100601196082F310880020F0BC704703205D
S31500004A20704701207047134E38449B092D1A012206
S31500004A3056F8233002FA05F60029E2D0EFF310808B
S31500004A4082F3108819683143196080F31088204674
S31500004A50F0BC70470320F0BC7047072FCCD9013556
S31500004A6004FA05F6C8E76A1C00FA02F6C4E700BFB6
S31500004A70E06A0000D06A00000121FFF7A3BF00BF73
S31500004A800021FFF79FBF00BFA0F101000028FBD166
S31500004A90704700BF2DE9D04301FB00F4FFF7BEFDD0
S31500004AA04FF47A71A4FB018900274FF0FF364F457A
S31500004AB008BF46450C4BB3FBF0F005D3B8FBF0F04E
S31500004AC0800860B9BDE8D0838000B4FBF0F0A0FB9D
S31500004AD001018F4208BF8642F3D24FF0FF30BDE896
S31500004AE0D043FFF7D1BF00BF00CA9A3B002808DBBE
S31500004AF0800000F1804000F5C640036823F480334F
S31500004B00036070470B4A0C4B10B49B1A0B4CDB0826
S31500004B10236063B10A4800219388C3F3090340F870
S31500004B20043F236801318B4202F10802F4D85DF894
S31500004B30044B704700050000100500000C01FE1F25
S31500004B40FC620040164B10B41C687CB1154B006823
S31500004B501A681368984218BF002304D10AE052F875
S31500004B60041F814207D00133A342F8D103205DF828
S31500004B70044B704700230C4A12680121134403E0DA
S31500004B80C3E8401F0028F2D0D3E84F2F12F0FF0FE2
S31500004B90F6D0BFF32F8F08205DF8044B704700BF97
S31500004BA01001FE1F1401FE1F1801FE1F0F4B10B44B
S31500004BB01C687CB10E4B00681A681368984218BFCF
S31500004BC0002304D109E052F8041F814206D00133C4
S31500004BD0A342F8D15DF8044B70470023054A1268DA
S31500004BE00021D1545DF8044B704700BF1001FE1F31
S31500004BF01401FE1F1801FE1F38B50A4C0A4D0B485A
S31500004C000B490C4B0C4A04602D1BAD080D601A6055
S31500004C103DB104EB850520460434FFF7C7FFAC42DF
S31500004C20F9D138BD10050000C00600001401FE1FB2
S31500004C301001FE1F1801FE1F0C00FE1FEFF310816E
S31500004C40012383F31088124B33F8102092B22AB155
S31500004C5033F81020013A92B223F8102033F81030BE
S31500004C609BB293B910B40B4A0B4CB2F8FE3334F82E
S31500004C7010009BB243F4254323EA0003A2F8FE3357
S31500004C8081F310885DF8044B704781F310887047F4
S31500004C901C01FE1F00E001402C6B000030B4EFF356
S31500004CA01084012383F310880D4A32F810309BB22A
S31500004CB05BB90C4D0C49B5F8FE3331F810109BB2B8
S31500004CC043F425430B43A5F8FE3332F81030013385
S31500004CD09BB222F8103084F3108830BC704700BFB6
S31500004CE01C01FE1F00E001402C6B0000024B00225D
S31500004CF01A805A809A8070471C01FE1F00BE7047BA
S31500004D0008B500F005F800F05DF9FEE7704700BF52
S31500004D10284A38B5D2F8883043F47003C2F8883090
S31500004D200020FFF7F3FFFFF73FFD234B1B68984773
S31500004D30FFF7DCFFFFF72AFC204A214B21481B68BE
S31500004D40002414809847204A204B9B1A05D0134410
S31500004D50214603F8011D9A42FBD11D481D4BC01A7E
S31500004D6007D01D4A184412F8011B03F8011B8342A1
S31500004D70F9D1FFF753FC194C194B1A4D18602D1B2E
S31500004D800120FFF7C3FF032DC8BF2D1904DD54F81A
S31500004D90043B9847AC42FAD1FFF72EFFFFF7B2FE6D
S31500004DA0114B12481B6898470020BDE8384000F0B8
S31500004DB01FB800BF00ED00E098650000CC00FE1FA4
S31500004DC080640000D86B0000B000FE1F3402FE1F96
S31500004DD07800FE1F0000FE1F6C6F00000000FE1F23
S31500004DE02401FE1F0400FE1FB4650000346B0000A2
S31500004DF000F044B882B04FF0C84300210091009AF9
S31500004E001A7D61F300021A751A8DD0B1202161F363
S31500004E100F221A851A8D4FF0C04142F080021A8582
S31500004E200A68009240F6FF721946019204E0019B5F
S31500004E30013B0193019A12B18A6A5206F7D502B074
S31500004E4070474FF0C04142F47F421A850A680092CB
S31500004E501A8D60F3C7121A850A68009240F6FF7130
S31500004E601A46019105E0019B013B0193019B002B32
S31500004E70E5D0936A5B06F6D402B07047F8B54D49A3
S31500004E800A684FF0C844002322F0400210200A604E
S31500004E902063A36123626363C4F80438227A63F350
S31500004EA004022272237DFF2243F00103237522614F
S31500004EB0237D662243F0010323752261237D992217
S31500004EC043F0010323752261237D43F0010323751B
S31500004ED001212320FFF7DEFD9F232361364B226944
S31500004EE01A7022695A702169227D997042F0010276
S31500004EF022751A78EF2A04D000221A705A709A7016
S31500004F00F8BD5A78402AF7D19A78172AF4D10520A5
S31500004F1020612A4923690B70227D294B42F0010248
S31500004F2035262275266122691A70227D42F0010219
S31500004F302275228D042565F30302228522795027E6
S31500004F4065F3030222712761227D42F00102227578
S31500004F501A78012742F002021A7027610A78226144
S31500004F601A782261227D3A4322752561227D3A43D1
S31500004F702275228860F302022280206122690A706B
S31500004F80227D3A432275266122691A70237D3B43AE
S31500004F902375238843F040032380A369DB074FF082
S31500004FA0C845FAD40120FFF725FF2B7D6FF30003D8
S31500004FB02B75F8BD007004402801FE1F2C01FE1F52
S31500004FC03001FE1F08B500F013FA002008BD00BF2F
S31500004FD070B5084CE66825683368616828469847C6
S31500004FE07368A16828469847B3682846BDE87040AC
S31500004FF0184700BF406B0000054BD96810B44C69D8
S3150000500002460021186823465DF8044B184700BF86
S31500005010406B00000288064840F6B83303FB02F3F3
S3150000502080FB03201844DB17C3EBE020704700BF6A
S31500005030810008800A4B9A68596818681268D0B5CA
S315000050409047084B084C094809490A4A0026002798
S31500005050C3E900670023236003600B601360D0BDC3
S31500005060C06B0000C801FE1FD401FE1FD001FE1F49
S31500005070D801FE1FC001FE1FF0B5037883B00022E1
S31500005080022B019201D003B0F0BD44785CB1012C33
S31500005090F9D12249D1E90023013243F10003C1E9E4
S315000050A0002303B0F0BD1E4E1E4B426832601B4DFE
S315000050B09B6901A903209847D6F800E029681A4B96
S315000050C0019A14EB0E0641F10007A6FB030103FB50
S315000050D00711234600F0C2FE00F07AFE07EE900AA2
S315000050E0B6EE007A37EE877ADFED107A104B11496B
S315000050F0114ABCEEC77A0026F8EE476A0027C7EECB
S31500005100A67AC5E9006783ED007AFCEEE77AC1ED81
S31500005110007AC2ED007A03B0F0BD00BFC801FE1FE1
S31500005120D001FE1FF465000000CA9A3B286B6E4E44
S31500005130D801FE1FC001FE1FD401FE1F2DE9F04F4E
S31500005140DFF870B0DFF870A0DFF87090DFF87080DD
S31500005150DFF870C0DFF870E00F4F104E104D114CA5
S315000051601148124900220023CBE90023CAE9002393
S31500005170C9E90023C8E900230D4A0023CCF8003012
S31500005180CEF800303B6033602B60236003600B6019
S315000051901360BDE8F08F00BFE801FE1F1002FE1F7E
S315000051A01802FE1FE401FE1F1402FE1FF801FE1F77
S315000051B02002FE1F2802FE1FF001FE1F0802FE1F2E
S315000051C00002FE1F1C02FE1F3002FE1FFFFFFFFF34
S315000051D02DE9F0432DED028BB0EE408AF0EE608AA9
S315000051E051EC110B83B01DA5D5E9004559EC128B86
S315000051F0CDE90001FFF7A2FFDFF868E0DFF868C03D
S31500005200114F124E22462B46CEE90045DDE900013C
S315000052108CED008B00F0E2FA2246C7E900012B462E
S315000052204046494600F004FC094B0A4A5B68C6E959
S3150000523000010949A1FB03131B0C013B136003B0DA
S31500005240BDEC028BBDE8F0830802FE1F0002FE1FC4
S31500005250001000E0F801FE1F73B2E745FCA9F1D289
S315000052604D62503F2802FE1FF001FE1F414BDFF842
S3150000527034C15B682DE9F04F3F4C404DCCF800300F
S31500005280A4FB03432C683E4F3E4E1B0C1C1B83B0F5
S315000052903C603360002C5AD0019203680A689A4237
S315000052A058D2394F0023002000213B609B46DFF88F
S315000052B0F8E0DFF8F8A0DEF80030DAF80040DFF8B2
S315000052C0F0C0324AC4EB0B049B44CCF80040CEF845
S315000052D000B0D2E9002300F081FA8046584689469C
S315000052E000F006FA2A4BD3E9002300F077FA0246CB
S315000052F00B464046494600F0BFF8804620468946A0
S3150000530000F0F6F9234BD3E9002300F067FA0246D2
S315000053100B464046494600F0AFF800F071FCFF2806
S3150000532021D81D4A106000F0E3F91C4B4FF01932EA
S3150000533000F054FA00F064FCC0F16403184A1060EF
S31500005340019A13603A683368CAF800202B6003B0EC
S31500005350BDE8F08F0C4FC3EB020B5846C7F800B000
S3150000536000F0C6F9A3E70C4BFF221A606420002365
S31500005370E4E700BF001000E073B2E745F801FE1F46
S315000053802002FE1FE401FE1F1C02FE1FF001FE1F8D
S315000053900802FE1F0002FE1F1802FE1F1919D93F40
S315000053A0E001FE1F1402FE1FE801FE1F1002FE1F91
S315000053B03002FE1F064B70B51C689D6859682A6846
S315000053C020469047AB682046BDE87040184700BFAE
S315000053D0CC6B0000054B10B49C68A4690122014601
S315000053E0A44618685DF8044B13466047CC6B000072
S315000053F080B5FFF7EDFDFFF7DDFFFFF71BFE9FED25
S31500005400100B9FED111B9FED122BFFF7E1FE124FC4
S31500005410124E134D134C1448FFF7EEFD1248FFF7DA
S31500005420F9FD2B8833600C490E4A83B20B483B606A
S31500005430FFF71CFF2068FFF7CDFFECE7AFF3008016
S315000054400000000000005940FCA9F1D24D62503F17
S3150000545000000000000000007C01FE1F8401FE1F0A
S31500005460D401FE1F8801FE1F8001FE1F81F000414E
S3150000547002E000BF83F0004330B54FEA41044FEA33
S31500005480430594EA050F08BF90EA020F1FBF54EACE
S31500005490000C55EA020C7FEA645C7FEA655C00F06A
S315000054A0E2804FEA5454D4EB5555B8BF6D420CDD3B
S315000054B02C4480EA020281EA030382EA000083EABE
S315000054C0010180EA020281EA0303362D88BF30BD5E
S315000054D011F0004F4FEA01314FF4801C4CEA1131B4
S315000054E002D0404261EB410113F0004F4FEA033313
S315000054F04CEA133302D0524263EB430394EA050F9E
S3150000550000F0A780A4F10104D5F1200E0DDB02FA0C
S315000055100EFC22FA05F2801841F1000103FA0EF2A0
S31500005520801843FA05F359410EE0A5F120050EF166
S31500005530200E012A03FA0EFC28BF4CF0020C43FA97
S3150000554005F3C01851EBE37101F0004507D54FF0A4
S31500005550000EDCF1000C7EEB00006EEB0101B1F5F4
S31500005560801F1BD3B1F5001F0CD349085FEA30003A
S315000055704FEA3C0C04F101044FEA445212F5800F45
S3150000558080F09A80BCF1004F08BF5FEA500C50F1E2
S31500005590000041EB045141EA050130BD5FEA4C0CC5
S315000055A0404141EB010111F4801FA4F10104E9D14E
S315000055B091F0000F04BF01460020B1FA81F308BF45
S315000055C02033A3F10B03B3F120020CDA0C3208DD11
S315000055D002F1140CC2F10C0201FA0CF021FA02F1EC
S315000055E00CE002F11402D8BFC2F1200C01FA02F15C
S315000055F020FA0CFCDCBF41EA0C019040E41AA2BF81
S3150000560001EB0451294330BD6FEA04041F3C1CDA48
S315000056100C340EDC04F11404C4F1200220FA04F068
S3150000562001FA02F340EA030021FA04F345EA030112
S3150000563030BDC4F10C04C4F1200220FA02F001FAD4
S3150000564004F340EA0300294630BD21FA04F0294656
S3150000565030BD94F0000F83F4801306BF81F48011EF
S315000056600134013D4EE77FEA645C18BF7FEA655C62
S3150000567029D094EA050F08BF90EA020F05D054EA34
S31500005680000C04BF1946104630BD91EA030F1EBF39
S315000056900021002030BD5FEA545C05D1400049413D
S315000056A028BF41F0004130BD14F580043CBF01F530
S315000056B0801130BD01F0004545F0FE4141F4700116
S315000056C04FF0000030BD7FEA645C1ABF19461046F1
S315000056D07FEA655C1CBF0B46024650EA013406BFF2
S315000056E052EA033591EA030F41F4002130BD00BFB1
S315000056F090F0000F04BF0021704730B54FF480646E
S3150000570004F132044FF000054FF0000150E700BFEE
S3150000571090F0000F04BF0021704730B54FF480644D
S3150000572004F1320410F0004548BF40424FF000013A
S315000057303EE700BF42004FEAE2014FEA31014FEA7D
S3150000574002701FBF12F07F4393F07F4F81F06051CC
S31500005750704792F0000F14BF93F07F4F704730B53B
S315000057604FF4607401F0004521F0004120E700BFCE
S3150000577050EA010208BF704730B54FF000050AE055
S3150000578050EA010208BF704730B511F0004502D556
S31500005790404261EB41014FF4806404F132045FEA58
S315000057A0915C3FF4DCAE4FF003025FEADC0C18BFFD
S315000057B003325FEADC0C18BF033202EBDC02C2F1F3
S315000057C0200300FA03FC20FA02F001FA03FE40EA85
S315000057D00E0021FA02F11444C1E600BF70B54FF085
S315000057E0FF0C4CF4E06C1CEA11541DBF1CEA135567
S315000057F094EA0C0F95EA0C0F00F0DEF82C4481EACF
S31500005800030621EA4C5123EA4C5350EA013518BFEE
S3150000581052EA033541F4801143F4801338D0A0FBDB
S3150000582002CE4FF00005E1FB02E506F00042E0FB88
S3150000583003E54FF00006E1FB03569CF0000F18BF8E
S315000058404EF0010EA4F1FF04B6F5007F64F5407436
S3150000585004D25FEA4E0E6D4146EB060642EAC621C9
S3150000586041EA55514FEAC52040EA5E504FEACE2E36
